:020000040800F2
:1000000038E901205D02000813790008515A000800
:1000100011790008411200088189000800000000E1
:100020000000000000000000000000009D0100082A
:100030008112000800000000F9010008198500087D
:1000400077020008770200087702000877020008AC
:10005000770200087702000877020008770200089C
:10006000770200087702000877020008770200088C
:10007000770200087702000877020008451200089E
:10008000770200087702000877020008770200086C
:10009000770200087702000877020008770200085C
:1000A000770200087702000877020008770200084C
:1000B000E985000877020008770200087702000847
:1000C000770200087702000877020008770200082C
:1000D000F9820008518900085D89000869890008D3
:1000E000770200087702000877020008770200080C
:1000F00077020008770200087702000877020008FC
:100100007702000849790008770200080583000893
:1001100077020008770200087702000877020008DB
:100120005112000877020008770200085D120008EB
:1001300077020008770200087702000877020008BB
:1001400077020008770200087702000877020008AB
:100150006912000875120008770200087589000806
:10016000770200087702000877020008770200088B
:1001700077020008770200087702000800000000FC
:10018000455A000877020008DFF80CD000F0B0FDF7
:10019000004800471988030838E901202C4B1968EA
:1001A0000868B0E8F04F80F30988BFF36F8F4FF015
:1001B000000080F3118870470000000008480068C4
:1001C000006880F308884FF0000080F3148862B65E
:1001D00061B6BFF34F8FBFF36F8F00DF00BF00BF6B
:1001E00008ED00E0DFF80C00016841F470010160E7
:1001F000704700BF88ED00E0EFF30980BFF36F8F19
:10020000134B1A681EF0100F08BF20ED108A20E96A
:10021000F04F106009B44FF0500080F31188BFF325
:100220004F8FBFF36F8F45F0BFF84FF0000080F3A2
:10023000118809BC19680868B0E8F04F1EF0100F6B
:1002400008BFB0EC108A80F30988BFF36F8F704746
:1002500000C00120EFF3058070470000064880478A
:1002600006480047FEE7FEE7FEE7FEE7FEE7FEE79B
:10027000FEE7FEE7FEE7FEE7D985000889010008F2
:100280002DE9F05F0546002092469B4688460646CB
:10029000814640241BE0284641464746224600F05E
:1002A000A6FB53465A46C01A914110D31146184630
:1002B000224600F08DFB2D1A67EB01084F462246BF
:1002C0000120002100F084FB17EB00094E41201EA5
:1002D000A4F10104DFDC484631462A464346BDE826
:1002E000F09F10B5431A934209D28318881803E08F
:1002F00010F8011D03F8011D521EF9D210BD40EA8D
:1003000001039B0703D009E008C9121F08C0042A93
:10031000FAD203E011F8013B00F8013B521EF9D27A
:1003200010BDD2B201E000F8012B491EFBD270478C
:100330000022F6E710B513460A4604461946FFF7B1
:10034000F0FF204610BDCAB2401E10F8011F8A42BD
:1003500002D00029F9D100207047421C10F8011B7F
:100360000029FBD1801A704710B5002200E0521C12
:10037000835C8C5CA34201D1002BF8D1D8B2E1B2EE
:10038000401A10BD30B504460020034600E05B1C57
:10039000934203D2E05CCD5C401BF8D030BD0346F5
:1003A00011F8012B00F8012B002AF9D118467047EB
:1003B00030B505460020034600E05B1C934205D2A1
:1003C000EC5CC85C201A01D1002CF6D130BD10B510
:1003D00008E00A4602E0A34208D0521C1378002B22
:1003E000F9D1401C0478002CF3D1002010BD00008E
:1003F0000FB400B58DB010A909900B9000914FF08B
:10040000FF300A9000200C900548069005480790A0
:100410006A4609A80F9900F021FB0DB05DF814FBA6
:10042000790A0008970A00082DE9FF5F1D464FF082
:10043000FF3BD5E9014691465F464FF00008A969A8
:100440007F1C01988847296A824688470028F6D190
:10045000BAF1FF3F0CD024F4C064002E19DD600611
:1004600014D5BAF12B0F09D0BAF12D0F0ED103E03C
:10047000584604B0BDE8F09F44F48064A9697F1C2D
:1004800001988847761E8246002E02DDBAF1300FB1
:1004900003D0B9F1000F26D032E0A969761E44F4EA
:1004A00000747F1C019888478246002E05DDBAF152
:1004B000780F06D0BAF1580F03D0B9F1000F10D061
:1004C0001EE0B9F1000F02D0B9F1100F18D1A969DF
:1004D000761E24F400747F1C019888478246102001
:1004E00002E0082000E00A20814609E008FB090834
:1004F000A969761E44F400747F1C019888478246DF
:10050000002E05DD4946504600F093FA0028EDDA4A
:10051000E96901988847A00502D46FF00100A8E7B7
:10052000E00725D1600613D5600502D5C8F10000AB
:1005300000E0404629680A1D2A600968220501D5A5
:10054000087015E0220701D5088011E008600FE06F
:100550002868011D29600068210502D580F8008007
:1005600006E0210702D5A0F8008001E0C0F8008075
:1005700038467EE72DE9FE4F804681EA0300C00F32
:100580000C46009021F0004123F00045B8EB02003A
:10059000A94105D24046214690461C460B460246DC
:1005A00023F00040104347D0270DC7F30A00C3F3E0
:1005B0000A510290401A019040286BDAC3F31300ED
:1005C00040F4801B0098924620B10023D2EB030A2E
:1005D00063EB0B0B01985946C0F14002504600F006
:1005E000F7F906460D4650465946019A00F00FFAB3
:1005F00010EB08006141002487EA115284EAE77396
:100600001A4340D0009A62B3019A012A4FEA075276
:1006100015DC001B61EB02014FF0004202EA0752B9
:10062000CDE90042001C41F5801132462B4600F016
:10063000A7FA03B0BDE8F08F40462146F9E7001B5A
:1006400061EB0201001C41F5801300185B4120188A
:10065000A2F5001747EB030140EAD570B6196D41CA
:1006600011E06D084FEA360645EAC0754FEA0752B9
:10067000001B61EB0201001C41F5801149084FEAA3
:1006800030000019514132462B4603B0BDE8F04F0F
:1006900000F067BA0098012240000023D0EB02026C
:1006A00063EBE073009821464FEAE074B8EB00007A
:1006B00061EB0401E9E783F000435BE781F000416F
:1006C00058E72DE9FE4F81EA030404F0004421F0CD
:1006D000004100944FF0000B23F0004350EA010466
:1006E0005ED052EA03045BD0C3F30A54C1F30A5547
:1006F0002C44A4F2F3340194A0FB0254C1F313017F
:1007000041F48011C3F3130343F4801301FB02444B
:1007100000FB034E840A970A44EA815447EA835750
:10072000A4FB076802958D0A05FB07854FEA932C09
:1007300004FB0C542705029D4FEA065847EA16377A
:10074000B5EB08056EEB070C870E920E47EA811792
:1007500042EA8312A7FB0201B6EB0B0164EB000433
:100760002B0D43EA0C335E1844EB1C50DA4651461D
:10077000E7FB0201C5F313044FEA0B3343EA1453BA
:100780004FEA0432019C43EA0603A4F10C040294EC
:10079000009CCDE900B400F0F3F903B0BDE8F08FA0
:1007A00000200146F9E72DE9F04D81EA030404F049
:1007B000004B21F0004514464FF0000A23F00041A1
:1007C00050EA050220D054EA01021DD0C5F30A57B1
:1007D0000246C5F31303C1F31300C1F30A5640F4F4
:1007E000801543F48013A7EB0608101BD64608F2C9
:1007F000FD3873EB050002D308F1010801E09218FF
:100800005B41B8F1000F03DA00200146BDE8F08D2E
:1008100000204FF48011064684460EE0171B73EB50
:10082000050705D3121B63EB050306434CEA010CD5
:1008300049084FEA300092185B4150EA0107EDD1B8
:1008400052EA030012D082EA040083EA0501084359
:1008500005D0101BAB4106D20122002306E0002286
:100860004FF0004302E06FF0010253101AEB060054
:100870004CEB085110EB0A0041EB0B01BDE8F04DC9
:1008800000F06FB90EB5C10F80EAE0700844CA07E6
:10089000002140F233438DE80E000A460B4600F07B
:1008A0006FF903B000BD70B5C1F30A5201F0004505
:1008B0000024C1F3130140F2FF3341F480119A4246
:1008C00001DA002070BD40F233439A42A2F2334273
:1008D00003DC524200F08BF800E090402C43F1D052
:1008E000404270BD00F0004230F000400AD0C10D1F
:1008F00001F56071C0F3160042EA0151C2084007D9
:1009000011437047002001467047000030B5041EB7
:1009100071F1000404DB4FF00044404264EB01013C
:10092000141E73F1000405DB1C464FF000435242D5
:1009300063EB04038B4208BF824230BD30B5041E16
:1009400071F1000404DB4FF00044404264EB01010C
:10095000141E73F1000405DB1C464FF000435242A5
:1009600063EB0403994208BF904230BD01F000439D
:1009700030B421F0004150EA010206D00A0DA2F580
:100980006072C1F31301002A02DC30BC0020704702
:10099000440F44EAC104C100E01830BC00EBC2506F
:1009A00000F08AB830B50B46014600202022012411
:1009B00009E021FA02F59D4205D303FA02F5491B2D
:1009C00004FA02F52844151EA2F10102F1DC30BD43
:1009D000202A04DB203A00FA02F1002070479140FF
:1009E000C2F1200320FA03F3194390407047202AF4
:1009F00004DB203A21FA02F00021704721FA02F3C9
:100A0000D040C2F120029140084319467047202A85
:100A100006DBCB17203A41FA02F043EAE07306E026
:100A200041FA02F3D040C2F1200291400843194636
:100A300070473A2800D2303820F02002412A01D3F2
:100A4000A2F13700884201D34FF0FF307047000019
:100A5000026811441378016018467047D160044958
:100A600051610449116200211161114600F058B929
:100A7000510A0008150D0008426842B1016811F8DA
:100A8000013B23B1521EC0E90012184670470121F4
:100A9000C160881E704742685AB1C368016843B993
:100AA00083688B4205D0491E521CC0E90012002009
:100AB00070474FF0FF3070470029A8BF7047401CB7
:100AC000490008BF20F00100704710B4B0FA80FC64
:100AD00000FA0CF050EA010404BF10BC704749B1A1
:100AE000CCF1200421FA04F411FA0CF118BF012111
:100AF00021430843A3EB0C01CB1D4FEA00614FEAF1
:100B0000102042BF002010BC704700EBC3501044BF
:100B10000029A4BF10BC7047401C490008BF20F04A
:100B2000010010BC704710B541000CD0C0F3C75194
:100B3000962908DC7E2909DC06DB410204D000F09E
:100B4000004040F07E5010BD002010BDC1F1960461
:100B5000C4F1200100FA01F1E040FFF7ADFFA04031
:100B600010BD10B5141E73F1000408DA401C41F1E9
:100B7000000192185B411A4301D120F0010010BD21
:100B80002DE9F04D92469B4611B1B1FA81F202E097
:100B9000B0FA80F220329046FFF71AFF04460F4663
:100BA00040EA0A0041EA0B0153465A46084313D073
:100BB000114653EA010019D0C8F140025046FFF730
:100BC00016FF05460E46504659464246FFF700FFBF
:100BD000084305D0012004E020463946BDE8F08DE9
:100BE0000020054346EAE0762C4337430A98630524
:100BF000E40AA0EB08000022FD0A44EA47540A3048
:100C000002D500200146E9E7010510196941DDE937
:100C1000084500196941BDE8F04DA2E72DE9F04D06
:100C200000231A461B1A8A4103DB00200146BDE857
:100C3000F08DC1F30A52C1F3130141F480154FF056
:100C4000000BD10702D100186D41521E0027044647
:100C500040F2FF11384601EB620A3E4680460246EA
:100C600000204FF48011FFF7C2FEC2197141BB187A
:100C700046EB0100B4EB030C75EB000C04D3E41A53
:100C800065EB000517460E46241908F101006D4179
:100C900080463428E3DDF91946EB0600091BA8411C
:100CA00003D24FF0FF32134601E0002213461BEB44
:100CB000070046EB0A51BDE8F04DFFF752BFC1F304
:100CC0000A52C1F3130140F2FF3341F480119A42FA
:100CD00002DA00200146704740F233439A42A2F202
:100CE000334202DC5242FFF782BEFFF771BE0000C2
:100CF000064C074D06E0E06840F0010394E8070069
:100D000098471034AC42F6D3FFF742FAB49806087D
:100D1000F4980608C0B24FF4F05100F0A5B90000F5
:100D20002DE9F34F8BB04FF0000801F10C000C4699
:100D30004FF0010B46460DF1080A0190626901214E
:100D400001989047051E2DD0252D2CD0216A88476B
:100D5000C0B16269012101989047216A8847002843
:100D6000F7D1411E62690198904700E0761CA169A5
:100D70000B988847216A88470028F7D1E1690B98CA
:100D80008847DBE7A1690B9888470746A84201D14D
:100D9000761CD3E7E1690B9888477F1C02D1B8F134
:100DA000000F6FD046E1002762693D463946019841
:100DB00090472A2804D162690121019890470125B2
:100DC000DFF884926269012101989047A0F1300117
:100DD0000A290AD24F45E5DC07EB870100EB410702
:100DE000303FDFD445F01005ECE7E90601D46FF0A1
:100DF00000476C280AD04C2814D0682815D06A28DF
:100E00000DD074281CD07A281AD01DE06269012107
:100E1000019890476C2802D045F0040514E045F095
:100E200002050DE045F020050AE062690121019804
:100E30009047682802D045F0080505E045F40065B4
:100E40006269012101989047C4E9015765283DD0A6
:100E500019DC58287AD00CDC452837D004DC25284A
:100E600026D0412831D131E046282FD047282CD137
:100E70002CE05B2877D0612828D063287CD06428B8
:100E800023D15AE0D0E06F2848D008DC66281DD076
:100E900067281BD0692821D06E2816D127E070283A
:100EA00045D0732868D0752847D078280DD14DE0FB
:100EB000A1690B988847054625283FF469AFE16989
:100EC0000B9888476D1C3FF46AAFB3E023466A462F
:100ED0006FF001000B99AFF300809EE045F04000F9
:100EE0006060A80723464FF0000236D43EE0E807D2
:100EF0007FF447AF2068011D21600068290501D5F6
:100F000006701BE7290701D5068017E7A90703D557
:100F1000F117C0E9006111E706600FE745F04000F6
:100F20006060A80723464FF0080216D41EE040F682
:100F30000E0125EA0100606016E045F040006060A7
:100F4000A80723464FF00A0207D40FE045F04000FF
:100F50006060A80708D5234610226FF001000B99A6
:100F6000AFF3008059E007E0234610226FF0010044
:100F70000B99FFF759FA50E04FF000094F464B46E6
:100F8000632802D05B2806D040E0E80601D40120A7
:100F9000A06001273AE062690121019890475E282C
:100FA00005D14FF0010962694946019890472169CE
:100FB00039B900210A46534643F82120491C082923
:100FC000FADBB0B3216969B9C11700EBD1625311E3
:100FD0000AEB830122F01F02821A01200B68904065
:100FE00003430B6062690121019890475D28E8D1B5
:100FF000B9F1000F09D00020514651F82020D2430A
:1010000041F82020401C0828F7DB02AB224600975D
:101010006FF001000B99AFF3008000280CDA401C40
:1010200008D1BBF1000F05D04FF0FF300DB0BDE887
:10103000F08FFFE74046F9E7E90701D108F1010821
:1010400006444FF0000B79E6CCCCCC0C0EB540F248
:10105000334102910021CDE900110A460B46FFF70A
:101060008FFD03B000BD00007F2801D9002208E0F9
:10107000064A02EB5002C007127800D1120902F0B2
:101080000F0201209040084070470000288F06089A
:1010900070B58C1810F8015B15F0070301D110F83A
:1010A000013B2A1106D110F8012B03E010F8016B67
:1010B00001F8016B5B1EF9D12B0705D40023521EEA
:1010C0000DD401F8013BFAE710F8013BCB1A921C52
:1010D00003E013F8015B01F8015B521EF9D5A14250
:1010E000D8D3002070BD10B50246806B016C11F0A2
:1010F000500F016C05D011F0100F28D000F06FFADE
:1011000010BD41F40071016401688A6812F0405F0B
:1011100004BF027E002A17D1CA6A12F4700F1CBFE6
:101120008A6812F4806F0FD14A6822F020024A6068
:10113000016C21F480710164016C11F4805F03D1B2
:10114000016C41F00101016400F00AFA10BD806BEE
:10115000C16CBDE810401046084710B5806B4021B7
:101160000164416C41F00401416400F038FA10BDA3
:1011700010B5806B00F032FA10BD7047014601488F
:1011800002F014BAD808002010B5044802F020FA82
:10119000042814BF0120002010BD0000D808002042
:1011A00010B500F015F801281CBF012010BD07483C
:1011B00002F086FB040007D14FF40061034802F0FF
:1011C00075F8002818BF0124204610BDD80800205B
:1011D00081B001208DF800009DF8000001B070473B
:1011E000134610B50A4601460024044802F034FDB7
:1011F000002818BF0124204610BD0000D808002098
:10120000024800220121406838F06ABBC803002070
:10121000134610B50A4601460024044802F0C2FDF8
:10122000002818BF0124204610BD0000D808002067
:10123000024800220221406838F052BBC803002057
:10124000FEE70000014800F015BC000050C401207A
:10125000014800F00FBC000078080020014800F0B1
:1012600009BC0000BC090020014800F003BC0000DC
:10127000CC0A0020014800F0FDBB00005C09002002
:10128000704772B6FEE70000124A012392F80EC0C2
:10129000BCF1020F1BD292F80EC0002302F80C30F2
:1012A00092F80EC002EB8C0CCCF80400907B02F19B
:1012B0000C0C00F80C30907B00F1010C82F80EC091
:1012C000303008703A2048702F208870CB70184654
:1012D0007047000024C901202DE9F84F304900264D
:1012E000DFF8C0A0304D01EB00374FF48058B14615
:1012F000A968E868081AA8EB0601814298BF084669
:10130000A98802290CBF20F0030220F001025AB381
:10131000B9190C466B46254813F008FBA0BB009892
:1013200090B301281BD9410818BFD5ED040A16D087
:10133000B4F9000000EE100AB8EEC00A20EE200A50
:10134000BDEEC00A10EE100AB0F5004F24DA10F519
:10135000004FD8BF504624F8020B491EE8D1E96877
:1013600000980144E9600644B6F5805F28BFBDE8F7
:10137000F88FE868A9688842BAD30C48696912F006
:10138000FFFEC5F80C90B3E7FFE7C6F58051B8192A
:10139000FEF7CEFFBDE8F88F47F6FF70DBE70000F1
:1013A00090BC00200080FFFF2400002090DC002083
:1013B00030B482B04FF0000CCDF804C090F83C205F
:1013C000012A01BF022002B030BC7047012280F820
:1013D0003C200A6807230468092A14D9E5680A3AF8
:1013E00002EB420203FA02F225EA0202E2600B7803
:1013F0008A680A3B03EB430302FA03F30268D468EA
:101400002343D36011E0256902EB420203FA02F2A2
:1014100025EA020222610B788A6803EB430302FA91
:1014200003F302681469234313614A681F23072AE0
:1014300016D20468656B521E02EB820203FA02F2B6
:1014400025EA020262630B790A885B1E92B203EB03
:10145000830302FA03F30268546B234353632DE0C2
:1014600004680D2A15D2256BD21F02EB820203FA03
:1014700002F225EA020222630B790A88DB1F92B28C
:1014800003EB830302FA03F30268146B2343136331
:1014900014E0E56A0D3A02EB820203FA02F225EA51
:1014A0000202E2620B790A880D3B92B203EB8303DE
:1014B00002FA03F30268D46A2343D362254B04681B
:1014C000234A9C4204BF0C68122C03D1546844F494
:1014D0008004546004689C422FD10B68102B18BF05
:1014E000112B2AD1536843F4000353600968102973
:1014F00023D11949194A0968B1FBF2F101EB8101C5
:1015000049000191009118D0B1F1004F1BD2002980
:10151000D8BF002105DD11F0010102D0019A521E51
:101520000192009A491C521C914206DA019B891CC7
:101530005B1E5B1E01939142F8DB80F83CC002B059
:10154000002030BC70470199491E0191FCD1F4E79D
:1015500000230140002001401000002040420F0005
:1015600008B5194900680968884218BF08BD1748BE
:1015700000225FF007030188B0F802C05B1E6144DF
:1015800030F804CF6244F7D188181149A1FB00104C
:10159000C108104801800021009101218160406B49
:1015A00060B1694643F0F4FD009838B10A494FF044
:1015B00080500860BFF34F8FBFF36F8F0F22034936
:1015C000014800F017F908BD30080020C8A8002025
:1015D000898888885CC0012004ED00E0704770476E
:1015E00070B504004FF0000504BF012070BD206CF1
:1015F000002628B9204600F0ADF8666484F83C6007
:10160000206C10F0100F18BF012503D084F83C6047
:10161000284670BD206C20F4885040F00200206401
:101620004948416821F44031416041686268114392
:1016300041602068416821F4807141602068416800
:10164000226941EA022141602068416821F040712D
:10165000416020684168A268114341602068816848
:1016600021F40061816020688168E2681143816033
:10167000A06A6FF07061C8422068816821F07061D3
:1016800081602068816808BF21F040510BD0A26AB8
:10169000114381602068816821F040518160206899
:1016A0008168E26A114381602068816821F002014B
:1016B000816020688168227E41EA4201816094F85D
:1016C000200000282068416808BF21F400610ED086
:1016D00041F4006141602068416821F4604141604B
:1016E00020684168194B626A03EB42321143416042
:1016F0002068C16A21F47001C1622068C16AA28BAE
:10170000134B03EB02521143C1622068816821F43C
:10171000007181602068816894F8302041EA42219C
:1017200081602068816821F480618160206881681F
:10173000626941EA822181606664206C20F00200C7
:1017400040F00100206461E70023014000E0FFFF5A
:101750000000F0FF70B586B00025064600950195A3
:101760000295039504950068A0F18041B1F5903190
:101770001CBF06B070BD1A48016841F48071016059
:10178000006800F4807005901648016841F004017B
:1017900001600068694600F0040005901020009088
:1017A00003200190104800F05FFB114C0F48C4E982
:1017B00000050015A560C4E9035040006061800089
:1017C000A0614011C4E907052046656200F040FAB7
:1017D000002818BFFFF755FDB463A66306B070BDBF
:1017E0004438024030380240000802401064024091
:1017F0007808002070B584B000250446019590F863
:101800003C001346AC46012802BF022004B070BD64
:10181000012084F83C002068826812F0010F26D174
:10182000826842F0010282605548564A0068B0FB67
:10183000F2F010EB40000190009018D0B0F1004F92
:101840006FD20028D8BF002005DD10F0010002D0C3
:10185000019A521E0192009A401C521C904206DAD4
:10186000019E801C761E761E01969042F8DB206851
:10187000826812F4807F03D0826822F480728260D2
:101880002068826812F0010F6AD0226C22F00102F7
:1018900022F4C06242F480722264406810F4806FC7
:1018A00005D0206C20F4005040F480502064206C5F
:1018B00010F4805F08BF656403D0606C20F0060000
:1018C000606484F83C50A26B30482F4DD063A26B0B
:1018D0002F481064A26B2F48D06422686FF022005A
:1018E00010602068426842F080624260206882682E
:1018F00042F48072826020680A4600F14C0C614616
:10190000A06B00F053FA84466868234910F01F0F5B
:10191000206807D0884204BF816811F0405F1AD068
:1019200026E028E0884212D01C4A904204BFD1F839
:10193000042312F01F0F0AD0A0F18042B2F59132B9
:1019400016D1D1F8041301F01F01102910D28168BB
:1019500011F0405F0CD1816841F08041816007E067
:10196000206C40F010002064606C40F00100606466
:1019700004B0604670BD0198401E0190FCD176E72E
:101980001000002040420F0000230140E710000833
:10199000711100085B110008002001400021014086
:1019A0002DE9F0410446876D00F064FB054694F88C
:1019B00035000026022806D08020606584F8346057
:1019C0000120BDE8F0812068016821F01601016066
:1019D0002068416921F080014161206C002804BF2A
:1019E000A06C002804D02068016821F00801016083
:1019F0002068016821F0010101602068006810F092
:101A0000010F12D000F036FB401B052808D920201A
:101A10006065032084F8350084F83460BDE8F08107
:101A20002068006810F0010FECD194F85C003F21B1
:101A300001FA00F0B860012084F8350084F83460C1
:101A40000020BDE8F08190F83510022903D08021F4
:101A5000416501207047052180F835100068016854
:101A600021F00101016000207047406D704790F83F
:101A7000350070472DE9F843044600270097734866
:101A80004FF41651A56D0068B0FBF1F92E6894F87B
:101A90005C00082101FA00F0304211D02068026891
:101AA00012F0040F0CD0026822F00402026094F8D5
:101AB0005C0001FA00F0A860606D40F00100606514
:101AC00094F85C004FF0010808FA00F0304209D0A9
:101AD0002168496911F0800F04D0A860606D40F062
:101AE0000200606594F85C1004208840304209D000
:101AF0002168096811F0020F04D0A860606D40F001
:101B00000400606594F85C1010208840304220D0BA
:101B10002168096811F0080F1BD0A86020680168CF
:101B200011F4802F09D0006810F4002F02D0A16CAE
:101B300079B10CE0216C51B90BE0016811F4807FA0
:101B400003D1016821F008010160216C09B1204630
:101B5000884794F85C102020884030424AD02168A1
:101B6000096811F0100F45D0A86094F835000528D9
:101B70002068016809D011F4802F2BD0006810F480
:101B8000002F24D0E16B21B332E021F01601016077
:101B90002068416921F080014161206C002804BF68
:101BA000A06C002804D02068016821F008010160C1
:101BB00094F85C004FF03F0101FA00F0A86084F84F
:101BC000358084F83470216DD1BBBDE8F883616C39
:101BD00071B90FE0016811F4807F07D1016821F02D
:101BE0001001016084F8358084F83470E16B09B12C
:101BF00020468847606D002808BFBDE8F883606D07
:101C000010F0010F17D04FF0050084F83500206860
:101C1000016821F001010160009800F101000090CD
:101C2000484504D82068006810F0010FF4D184F80A
:101C3000358084F83470E16C002908BFBDE8F88372
:101C4000204601B0BDE8F043084700001000002026
:101C500070B5044600F00EFA0646002C04BF0120C1
:101C600070BD022084F83500002584F834502068C7
:101C7000016821F0010101602068006810F0010F87
:101C800010D000BF00F0F6F9801B052805D92020F0
:101C90006065032084F8350070BD2068006810F08E
:101CA000010FEFD1216808683D4A1040D4E90123B3
:101CB0001A43D4E9033C43EA0C031A4363691A4309
:101CC000A3691A43E3691A43236A1A431043626AF9
:101CD000042A03D1D4E90B231A4310430860D4F833
:101CE00000C0DCF81400012320F00701606A40EA1C
:101CF0000102042837D1A16AE06A0A4318B3A66931
:101D000056B1B6F5005F14D000291CBF0129022985
:101D100021D003291CD026E019B1012905D00229C0
:101D200021D110F0807F1ED015E0B0F1C07F1AD114
:101D300011E081B1012907D002290CD0032908BF85
:101D4000B0F1C07F07D00EE010F0807F03D10AE031
:101D500010F0807F07D04FF04000606584F8353088
:101D60004FF0010070BDCCF8142020680D4AC1B2BC
:101D7000A1F11001A2FB01210B4A4FEA1111032925
:101D8000525CE2656FF3090088BF001D3F2191405E
:101D9000A0658160656584F83530002070BD000065
:101DA0003F8010F0ABAAAAAA3867040870B490F874
:101DB0003450846D4FF0000C012D02BF022070BC26
:101DC0007047012580F8345090F835600025012EC9
:101DD0001CBF80F834504FF0020C02D070BC60463B
:101DE0007047022680F83560456505682E6826F440
:101DF00080262E6005686B608368402B036803BFF4
:101E00009A600268D16099601CBF0168CA6090F84E
:101E10005C103F2202FA01F1A16001680A6842F0F9
:101E200016020A60016C21B101680A6842F00802DA
:101E30000A600068016841F001010160CEE700001E
:101E400070B5044600F016F90546B4F1FF3F02D024
:101E500004480078044400F00DF9401BA042FAD376
:101E600070BD0000040000202DE9F84F7B4D7A4C36
:101E700000224FF001094FF0030C4FF00F0A05F15B
:101E8000040E00BF0B6809FA02F63340B34240F07B
:101E9000DC800F7907F00307012F18BF022F19D13B
:101EA000D0F808804FEA42070CFA07FB28EA0B0833
:101EB000D1F80CB00BFA07F747EA080787604768C4
:101EC00027EA06060F79C7F3001707FA02F747EA71
:101ED000060646604E683CEA06060BD0C768560008
:101EE0000CFA06F827EA0807D1F8088008FA06F67F
:101EF0003E43C6600E7906F00306022E11D1D608C5
:101F000000EB8607D7F820805607F60E0AFA06FB84
:101F100028EA0B08D1F810B00BFA06F646EA0806D4
:101F20003E62076856000CFA06F827EA080791F89F
:101F3000048008F0030808FA06F63E4306604E687F
:101F400016F4403F7DD0266846F480462660266819
:101F500006F48046009622F0030606F1804707F556
:101F60009837D7F808889607360F0AFA06FB28EA4A
:101F70000B08A0F1804BBBF5003B38D0A0F1804BA3
:101F8000BBF5013B08BF4FF0010B30D0A0F1804BF7
:101F9000BBF5023B08BF4FF0020B28D0A0F1804BED
:101FA000BBF5033B08BF4FF0030B20D0A0F1804BE3
:101FB000BBF5043B08BF4FF0040B18D0A0F1804BD9
:101FC000BBF5053B08BF4FF0050B10D0A0F1804BCF
:101FD000BBF5063B08BF4FF0060B08D0A0F1804BC5
:101FE000BBF5073B0CBF4FF0070B4FF0080B0BFA8C
:101FF00006F646EA0806C7F808682E684F689E434A
:1020000017F4801F18BF1E432E60DEF800604F6873
:102010009E4317F4001F18BF1E43CEF80060104FF8
:102020003E68D1F804809E4318F4003F18BF1E4359
:102030003E600C4F3E68D1F804809E4318F4803F08
:1020400000E002E018BF1E433E60521C102AFFF45D
:1020500019AFBDE8F88F000044380240083C014049
:10206000043C0140003C0140002A08BF0904816192
:10207000704700000148806870470000040000209D
:10208000F0B50446006885B08168AE4DAE4F009152
:10209000A8420CBF39464FF0402189680191406841
:1020A00002900CBF38464FF04020406803906068B3
:1020B0004FF00106B0F5007F18BF00281DD011F0C9
:1020C000020F1CBF039810F0800F00F0CD80616AF2
:1020D000204601F10202626222680988AA420CBF0E
:1020E0003A464FF04022D160418D491E4185418DD5
:1020F000002900F0A48000F0B7B8009810F0020F9B
:102100001CBF029810F0800F19D0616A204601F1BF
:102110000202626222680988D160618DA1F1010129
:102120006185618D59B901684A6822F0A0024A6050
:10213000418E002904BF80F8416000F007F9019842
:1021400010F0010F1CBF039810F0400F25D021683C
:102150002046A9420CBF39464FF04021CA68C16AE7
:102160008B1CC3620A80418E491E4186418EA1B9F3
:102170000168A94214BF4FF040213946496821F057
:1021800060020CBF39464FF040214A60418D002962
:1021900004BF80F8416000F0D9F8019810F0400FBA
:1021A0001CBF039810F0200F1FD02068A8420CBF5E
:1021B00038464FF04020406820F060010CBF3846A0
:1021C0004FF0402041602068416821F0A00141604B
:1021D0002068C1688068019084F84160606C40F0BC
:1021E00002006064204600F0B2F8009810F0080F7A
:1021F00019BF029810F0200F05B0F0BD20684168AB
:1022000021F0A00141602068A8420CBF38464FF081
:102210004020406820F0600018BF4FF040277860F1
:1022200020688068009084F84160606C40F0040091
:10223000606405B02046BDE8F04000F088B8016851
:10224000A94214BF4FF040213946496821F0A0024D
:102250000CBF39464FF040214A60418E002904BF2F
:1022600080F8416000F072F8009810F0010F1CBF78
:10227000029810F0400F19D021682046CA68E16A20
:1022800001F10203E3620A80618EA1F1010161861E
:10229000618E59B901684A6822F060024A60418D36
:1022A000002904BF80F8416000F050F8009810F059
:1022B000400F1CBF029810F0200F1BD0206841680F
:1022C00021F0600141602068A8420CBF38464FF001
:1022D0004020406820F0A0010CBF38464FF040205D
:1022E000416084F84160606C40F002006064204608
:1022F00000F02DF8019810F0080F19BF039810F0A6
:10230000200F05B0F0BD2068A8420CBF38464FF042
:102310004020406820F0A00018BF4FF040277860B0
:102320002068416821F06001416084F84160606C80
:1023300040F00400606405B02046BDE8F04000F0C5
:1023400006B8000000380040003400407047704775
:10235000416B0847002804BF012070472DE9F04178
:10236000044690F84100002730B984F840705D4879
:102370006063204600F0C0F8022684F841602068BF
:10238000C16921F0BF0121F47061C161206806625A
:102390006069022808BF002143D0E06800280CBF14
:1023A00010252025A068202898BF6D00012000F08E
:1023B000B3FA2169B1F5007F1BD0B0FBF5F000EB5B
:1023C000800061694000B0FBF1F0401D4649A1FB6F
:1023D0000010C00800F00101401A40080902821EE6
:1023E000FE2A1ED3606C40F0100060640120BDE83E
:1023F000F081E16851B1A900B0FBF1F000EB800081
:1024000061694000B0FBF1F0401DDFE7E900B0FB7F
:10241000F1F000EB800061694000B0FBF1F0401D7D
:10242000D4E708432269216810430862D4E9010116
:102430000843A269E168114301432068C26922F0A0
:10244000BF0222F47062114341F40061C161206A4D
:10245000012806D06764012084F841000020BDE80F
:10246000F0812248606322482168DFF888C08142F9
:1024700014BF4FF040216146C96921F0BF0121F42A
:1024800070610CBF62464FF04022D16121688142E9
:102490000CBF61464FF040210E62226882420CBFA1
:1024A00061464FF04021C9698BB26168B1F5007F88
:1024B00016BF00294FF4807100212589A689824228
:1024C00045EA0605268B46EA010145EA010189B283
:1024D00041EA030141F4006118BF4FF0402CCCF8F1
:1024E0001C10B7E7BB5A0008CDCCCCCC812000082B
:1024F0000038004000340040F0B58BB00025019555
:10250000029503950495064600950695079508954E
:1025100009950068A0F18041B1F560511CBF0BB076
:10252000F0BD01200690C0200224CDE9070406A8D2
:1025300000F024FA002818BFFEF7A3FE294801681E
:1025400041F4804101600068274900F48040059013
:10255000086840F004000860086800F00400059076
:10256000086840F0020008600868052700F00200D3
:10257000059008200090CDE90145CDE90357694653
:102580001A48FFF771FCB8020090CDE90145CDE98A
:10259000035769461648FFF767FC174C1548C4E90E
:1025A00000054020C4E9020500012061400060618F
:1025B0008000A0614011C4E9070520466562FFF76D
:1025C00047FB002818BFFEF75CFEB463002205211C
:1025D0002420A66300F05CF9242000F049F90BB038
:1025E000F0BD000040380240303802400008024090
:1025F000000402407060024050C401207047000097
:10260000002912BF002A0120704770B5044690F8D7
:102610004100012832D194F8400001282ED0012633
:1026200084F84060032084F84100002565646162FD
:102630002068C06900F0070003281EBF0528228516
:1026400062851DD0A16B1D480864A16B1C48C8633E
:10265000A16B1C48C864238D2068616A00F10C02DC
:10266000A06BFFF7A3FB90B1606C40F008006064C2
:1026700084F8416084F84050012070BD022070BD94
:102680004FF6FF7000EA420020856085DAE784F8A3
:1026900040502068416811F0020F03D1416841F0B9
:1026A000020141602068C16911F4806F03D1C169E2
:1026B00041F48061C1614FF0000070BDB15A000863
:1026C0008D5A0008655A000808B501680D488269EE
:1026D0001268914218BF08BD0121C170002000900E
:1026E00009486946006843F073FA0098002808BF5B
:1026F00008BD4FF0805005490860BFF34F8FBFF30E
:102700006F8F08BD24000020A4C0012004ED00E06C
:1027100008B501680D4882691268914218BF08BD6A
:10272000012181700020009009486946006843F04B
:102730004FFA0098002808BF08BD4FF080500549A7
:102740000860BFF34F8FBFF36F8F08BD24000020D8
:10275000A4C0012004ED00E0024881680278114421
:1027600081607047040000200B4810B5016841F4F7
:1027700000710160016841F480610160016841F409
:1027800080710160032000F0B5F80F2000F006F81A
:1027900000F050F8002010BD003C024030B5054666
:1027A000204887B00024016841F001010160006801
:1027B00006A900F001000590684600F045FA03986C
:1027C000B0B100F061FA400017494FF08042B0FB11
:1027D000F1F0411E1548026040F2E732C0E90324DF
:1027E000C0E90114846101F0B3FF040016D102E0D6
:1027F00000F04AFAE8E70D4802F039F804000DD17C
:102800001C2000F035F8102D28BF012406D200222C
:1028100029461C2000F03CF80548056007B020461A
:1028200030BD00004038024040420F00B8C60120D1
:10283000080000200C4882B0016841F4804101602A
:10284000006800F4804000900848016841F0805121
:1028500001600068002200F0805000900F21901E5F
:1028600002B000F015B80000443802404038024081
:102870000028B8BF704700F01F01012202FA01F1E1
:102880004009800000F1E020C0F80011704700000E
:10289000174B10B41B68C3F30223C3F1070CBCF140
:1028A000040F88BF4FF0040C1C1D072C34BF0023FD
:1028B000DB1E012404FA0CFCACF1010C0CEA010152
:1028C000994004FA03F35B1E1A40114300284FEAB3
:1028D0000111A1BF00F1E02080F8001410BC704786
:1028E00000F00F0000F1E02080F8141D10BC7047CC
:1028F0000CED00E0074900F007000A684FF6FF03FF
:102900001A4042EA002040F0FD7040F0806008600C
:10291000704700000CED00E001460020012918BFBF
:1029200070471049096811F4000104D0B1F5000F97
:1029300008BF0D4870470D480168006811F4800F0A
:1029400000F03F0014BF0A490A49B1FBF0F00A4900
:102950000A680968C2F388125043C1F30271B0FBE0
:10296000F1F07047083802400080BB000438024094
:1029700040787D010024F400843802402DE9F843BA
:10298000054600784FF0010810F0050F4FF00007E2
:102990002FD0DFF83891C9F86870FFF76BFB4C4C0B
:1029A0000646206810F0006F09D000BFFFF762FBF9
:1029B000801B022865D8206810F0006FF6D1686887
:1029C000297A800140EA017042490860C9F86880AC
:1029D000FFF750FB0646206810F0006F09D100BFDA
:1029E000FFF748FB801B02284BD8206810F0006FCF
:1029F000F6D0287810F0020F5CD03748016841F01B
:102A0000805101600068354C00F0805000902068D3
:102A100040F480702060FFF72DFB0646206810F41C
:102A2000807F08D1FFF726FB801B022829D8206869
:102A300010F4807FF6D02A4C206810F4407027D024
:102A4000A98901F44071814222D0206820F44071AC
:102A50002448C0F8008007602160206810F0010F52
:102A600016D0FFF707FB0646206810F0020F08BFDC
:102A700041F288370CD100BFFFF7FCFA801BB84247
:102A800002D90320BDE8F883206810F0020FF3D0CC
:102A9000E9684FF4407030EA010213481CBF016836
:102AA00021F4F81109D001602068A989C1F30B0154
:102AB000084320600020BDE8F883026821F44071DB
:102AC00022F4F81221F070411143ECE70000474274
:102AD0000038024084380240403802400070004014
:102AE00070380240400E474208380240002804BFB8
:102AF000012070472DE9F0474D4E04460F463068DF
:102B000001F0FF0800F00700B84206D286F8008006
:102B1000306800F00700B84261D12068454D10F0E0
:102B2000020F14D010F0040F03D0286840F4E050D6
:102B30002860207810F0080F03D0286840F4604027
:102B400028602868A16820F0F000084328602078F9
:102B500010F0010F37D060683749012823D00228D0
:102B600018BF0328096823D011F0020F37D0296855
:102B700021F0030141EA00002860FFF77BFA81465B
:102B80002868616800F00C00B0EB810F18BF41F2BB
:102B9000883A18D0FFF76EFAA0EB090050450BD920
:102BA0000320BDE8F087096811F4003FDFD116E08B
:102BB00011F0007FDBD112E02868616800F00C00A2
:102BC000B0EB810FE6D1306800F00700B84209D9B8
:102BD00086F80080306800F00700B84202D001207B
:102BE000BDE8F087207810F0040F05D02868E16870
:102BF00020F4E05008432860207810F0080F06D039
:102C00002868216920F4604040EAC100286000F093
:102C10005BF82968094AC1F30311515CC8400849AF
:102C2000086008480068FFF7B9FD0020BDE8F0879C
:102C3000003C024008380240003802404067040867
:102C400010000020080000200F2202600C4A1368C8
:102C500003F003034360136803F0F0038360136819
:102C600003F4E053C36012684FF4E05303EAD20266
:102C700002610448006800F0070008607047000027
:102C800008380240003C02400448054900680968D1
:102C9000044AC1F38221515CC840704710000020F3
:102CA000083802405067040804480549006809686C
:102CB000044AC1F34231515CC84070471000002003
:102CC00008380240506704081848006810F00C02E9
:102CD000174808BF70471749042A04BF08467047C1
:102CE000082A18BF704710B5134C2268236802F0F9
:102CF0003F0213F4800F08D020680023C0F388102F
:102D0000A0FB0101FDF7BCFA07E021680023C1F335
:102D10008811A1FB0001FDF7B3FA2168C1F301415D
:102D2000491C4900B0FBF1F010BD0000083802401A
:102D30000024F40040787D0104380240002804BFDC
:102D4000012070472DE9F84F04460078DFF8CC8366
:102D500010F0010FA8F1040558D008F10400016833
:102D600001F00C01042909D0006800F00C000828CB
:102D70000DD1D8F8000010F4800F08D0286810F4A6
:102D8000003F43D06068002800F0C1813EE06068E9
:102D9000B0F5803F19D0B0F5A02F28680CBF40F4E3
:102DA000802020F48030286028680CBF40F48030F8
:102DB00020F4802028606068B8B1FFF75BF9064610
:102DC000286810F4003F05D020E0286840F48030E7
:102DD0002860F0E7FFF74EF9801B642800F22F818E
:102DE000286810F4003FF5D010E0FFF743F90646DD
:102DF000286810F4003F09D0FFF73CF9801B6428D5
:102E000000F21D81286810F4003FF5D12078C44FEE
:102E100010F0020F47D0C349086810F00C0F16D00D
:102E2000086800F00C00082804BFD8F8000010F46F
:102E3000800F0CD0E06820B34FF001003860FFF73E
:102E400019F90646286810F0020F09D011E0286829
:102E500010F0020F1CBFE06801280AD000F057B93B
:102E6000FFF708F9801B02287ED8286810F0020FAF
:102E7000F6D02868216920F0F80040EAC1002860F7
:102E800011E000203860FFF7F5F80646286810F0DA
:102E9000020F08D0FFF7EEF8801B022864D82868DC
:102EA00010F0020FF6D1207810F0080F2AD09E48BB
:102EB0009E4E616999B101210160FFF7DBF88146FF
:102EC000306810F0020F1DD1FFF7D4F8A0EB090015
:102ED000022849D8306810F0020FF5D012E0002126
:102EE0000160FFF7C7F88146306810F0020F09D083
:102EF000FFF7C0F8A0EB0900022835D8306810F0C1
:102F0000020FF5D1207810F0040F7FD088484FF0E1
:102F1000000B006810F0805F0AD18548016841F01D
:102F20008051016000684FF0010B00F0805000906C
:102F3000DFF80092D9F8000010F4807F1AD1D9F898
:102F4000000040F48070C9F80000FFF793F80646CF
:102F5000D9F8000010F4807F0CD100BFFFF78AF889
:102F6000801B02286BD800E069E0D9F8000010F45B
:102F7000807FF3D0A068704E01281BD005283068F0
:102F80000CBF40F0040020F00100306030680CBF3E
:102F900040F0010020F00400C6F80000A06841F2F3
:102FA000883AB8B1FFF766F88146306810F0020F32
:102FB00005D021E0306840F001003060EEE7FFF717
:102FC00059F8A0EB0900504539D8306810F0020FCD
:102FD000F5D011E0FFF74EF88146306810F0020F8F
:102FE0000AD000BFFFF746F8A0EB0900504526D8ED
:102FF000306810F0020FF5D1BBF1000F06D04C483D
:10300000016821F0805100E000E00160A069E8B3B0
:103010004449096801F00C01082950D002284FF0FA
:10302000000038660ED0FFF725F80446286810F037
:10303000007F6FD0FFF71EF8001B02283AD903204B
:10304000BDE8F88FFFF716F80646286810F0007FF5
:1030500009D000BFFFF70EF8801B0228EFD82868C0
:1030600010F0007FF6D1D4E907010843A16A334A82
:10307000490802EB0141626A41EA8211084394F86F
:103080002C1040EA0160C8F8000000E042E0012096
:103090003866FEF7EFFF0446286810F0007F39D14C
:1030A000FEF7E8FF001B0228C9D8286810F0007F4F
:1030B000F6D02FE0286810F0007FBBD12AE001286D
:1030C00008BFBDE8F88FD8F80000E26900F480017D
:1030D00091421CD1226A00F03F01914217D147F67C
:1030E000C071626A0140B1EB821F10D1A26A4FF039
:1030F000FF3300F4403103EB5202B1EB024F06D133
:1031000094F82C1000F07060B0EB016F02D0012039
:10311000BDE8F88F0020BDE8F88F000004380240B9
:103120000000474208380240800E4742743802408F
:103130004038024000700040703802400000FFFF3D
:10314000704700002DE9F0470446007900268A46C2
:10315000012804BF0220BDE8F087012727716079AC
:103160004FF00008012808D00420A0605FF001069D
:1031700084F804803046BDE8F0874FF0020984F8F7
:103180000590FEF777FF05462068406810F0010FB4
:103190000FD100BFFEF76EFF401B022804D9206844
:1031A000406810F0010F0BD02068406810F0010F4C
:1031B000F0D020688068E060CAF800006771D7E747
:1031C0006771C4F8089084F804800120BDE8F08796
:1031D00010B501680446486810F0200F18BF102091
:1031E0000AD0A060042060712046FFF7A9FF216883
:1031F0006FF06000486010BD10F0400F18BF08204D
:10320000EFD110F0010F08BF10BD086820F00800D2
:10321000086020688168E1606079042808BF10BDFB
:103220000120607100202071204600F039F810BDA7
:10323000002804BF0120704770B50446407900257E
:1032400018B92571204600F00DF802206071206841
:10325000016841F00401016001206071A560002057
:1032600070BD000008B50068A0F1A041B1F5C12112
:1032700018BF08BD0948016841F0400101600068BD
:10328000002200F04000009005215020FFF700FBD5
:10329000BDE808405020FFF7EBBA00003438024088
:1032A000704710B5FDF769FF10BD00002DE9F04330
:1032B0000446002783B003200D4684F83400606C78
:1032C00003285DD0B5F5805F04BFA06B40F080504F
:1032D00032D000264FF400684FF08069B5F5006FDA
:1032E00006D0002D1CBFA06B40F0006026D023E06C
:1032F000009601960021206804F022FB10F0007F68
:1033000001D0404639E06946204604F061FEA0BB8A
:10331000019810F4802F0DD0B4F8500001042068FB
:1033200004F03AFB48BB0221206804F07DFB20BB7F
:10333000304622E0484620E0A06325E00096019652
:103340000021206804F0FCFA10F0007FD9D1694612
:10335000204604F03DFE80B9019810F4803FE9D08A
:10336000B4F850000104206804F016FB28B90021CD
:10337000206804F059FB0028DAD0A16B0843DBE792
:10338000A06B40F08050A063A06B144E4FF001087A
:1033900028B12068866384F8348001270BE0D4E9E3
:1033A000050CD4E90112E368CDE90050CDF808C05E
:1033B000206804F0CFFA4FF40071206804F028FB75
:1033C00028B121688E63A16B0843A063012784F8AC
:1033D000348003B03846BDE8F0830000FF054000AC
:1033E0007047000030B4426E920F0A70426EC2F312
:1033F00083624A70426EC2F301628A70426E120C9E
:10340000CA70B0F86420120A0A7190F864204A71F8
:10341000826E120DCA80826EC2F303420A72B0F845
:103420006820C2F3C0324A72B0F86820C2F380321A
:103430008A72B0F86820C2F34032CA72B0F86820CD
:10344000C2F300320A734FF0000C81F80DC0446CD7
:103450004FF4007201236CB1012C3CD00268524938
:103460009163816B41F08051816380F8343030BCCE
:1034700001207047B0F86840C56EA405240D44EAE9
:1034800095740C61C46EC4F3C2640C75C46EC4F34D
:1034900002644C75C46EC4F342548C75C46EC4F39C
:1034A0008244CC75C46EC4F3C2340C760C69641CBF
:1034B00044650D7E05F00705AD1C04FA05F545656C
:1034C0000C7A04F00F0403FA04F48465640A6C4374
:1034D000C0E917420EE090F86840C56EA406A40A41
:1034E00044EA15440C610C69641CA4024465C0E9FB
:1034F00016240266B0F86C20C2F380324A76B0F827
:103500006C20C2F3C6128A7690F86C2002F07F021B
:10351000CA76026FD20F0A77026FC2F341724A77FE
:10352000026FC2F382628A77026FC2F38352CA7754
:10353000026FC2F3405281F8202081F821C0026F4F
:10354000C2F3004281F82220B0F87020C2F3C032EA
:1035500081F82320B0F87020C2F3803281F8242053
:10356000B0F87020C2F3403281F82520B0F8702006
:10357000C2F3003281F82620B0F87020C2F3812215
:1035800081F82720B0F87020C2F3012281F82820AA
:1035900090F87000C0F3460081F8290081F82A30C5
:1035A00030BC002070470000FF054000426C0A60FC
:1035B000826C4A60C26C8A60026DCA60426D0A61A8
:1035C000826D4A61C26D8A61006EC86100207047D9
:1035D00070B50446B0F8500000250104206804F0DE
:1035E00027FB18B1A16B0843A06304E00021206809
:1035F00004F0A6F90546C5F3432070BD2DE9F84354
:10360000056B04460068416B11F4004F18BF15F0BC
:10361000080F1CD0D4E90A56002E14BF0027BDE8BD
:10362000F883206804F0B0F905F8010B010A05F8E9
:10363000011B010C05F8011B000E361F7F1C05F84D
:10364000010B082FEDD3C4E90A56BDE8F883416B9E
:103650004FF0000611F4807F40F23A584FF0010716
:1036600052D0390281632068C16B21F49D7121F42D
:103670004241C1632068C16A21F00101C16215F0B5
:10368000080F1ED015F0220F09D0206804F034FB7B
:1036900028B1A16B0843A0632046FFF7A1FE206874
:1036A000C0F8388084F83470266315F0030F204684
:1036B00003D000F06FFBBDE8F88300F06FFBBDE8BE
:1036C000F88315F0800F08BFBDE8F88315F0200FD0
:1036D00009D0206804F010FB28B1A16B0843A06357
:1036E0002046FFF77DFE15F0030F18BFBDE8F883F5
:1036F0002068C16A21F00801C16284F83470204654
:1037000000F04CFBBDE8F883416B11F4804F18BF0B
:1037100015F0080F24D0D4E90856002E14BF002756
:10372000BDE8F88315F8010B009015F8011B361F52
:1037300040EA0120009015F8011B40EA014000908A
:1037400015F8011B40EA016000906946206804F00A
:103750001EF97F1C082FE5D3C4E90856BDE8F8839D
:10376000416B40F23A22114208BFBDE8F883416B39
:1037700011F0020F03D0A16B41F00201A163416B74
:1037800011F0080F03D0A16B41F00801A163416B58
:1037900011F0200F03D0A16B41F02001A163416B18
:1037A00011F0100F03D0A16B41F01001A163416B28
:1037B00011F4007F03D0A16B41F00801A16340F236
:1037C0003A7181632068C16B21F49D7121F400710D
:1037D000C163206804F090FAA16B0843A06315F060
:1037E000080F07D084F8347026632046FFF7F8FDF1
:1037F000BDE8F88315F0800F08BFBDE8F88315F029
:10380000300F2AD0E16B2C480865E06BFEF71BF9FE
:10381000002808BFBDE8F883E06B846B2068C0F81F
:1038200038802046FFF7D4FE84F8347026630628DB
:1038300018BF052805D1206804F05EFAA16B084383
:10384000A063A06B20B92046FFF72BFDBDE8F883ED
:103850002046FFF7C5FDBDE8F88315F0030F22D021
:10386000216C16480865206CFEF7EDF8002808BFAB
:10387000BDE8F883206C846B2068C0F8388020464F
:10388000FFF7A6FE84F834702663062818BF0528C3
:1038900005D1206804F030FAA16B0843A063A06B47
:1038A0000028D5D1CFE7A66384F83470266320467C
:1038B000FFF7F7FCBDE8F8838D7F00083B7F000829
:1038C000002804BF0120704770B5044690F834000A
:1038D000002518B92577204600F014F9032084F854
:1038E0003400204600F00CF800281CBF012070BDF9
:1038F000A5632563012084F83400002070BD00001A
:103900002DE9F04F4FF0000A91B004467620CDF833
:1039100000A05546CDE901A02B462A46294620683D
:1039200004F018F8744F47F8A05F206804F028F8F6
:1039300001263E600220FEF783FA4FF00008019551
:10394000C146206804F07EF818BB206804F09AF89D
:1039500037074FF6FF75002808BFA66408D0C4F8E3
:1039600048A0206804F06EF898B9A06C012824D112
:103970000021206804F010F8F8B109E00021206867
:1039800004F00AF828B95946206804F013F848B141
:10399000384684F83460A16B0843A06311B001205D
:1039A000BDE8F08F0021206803F0CAFF80464FEA8F
:1039B000D0790198401C019002E0DFF840B10198F5
:1039C000A84202D2B9F1000FD8D0A84228BF4FF0C8
:1039D0008070DED218F0804F14BF6664C4F844A033
:1039E000ADF81060206803F0A7FF002808BF4FF073
:1039F000806059D0606C032840D0206804F0A6F89D
:103A0000002851D10021206803F09AFF606704214B
:103A1000206803F095FFA0670821206803F090FF5D
:103A2000E0670C21206803F08BFFC4F88000606C15
:103A3000032823D004A9206804F008F9A0BB606C17
:103A400003281BD0BDF8100020650104206804F095
:103A5000AFF848BB0021206803F072FF60660421C4
:103A6000206803F06DFFA0660821206803F068FF5E
:103A7000E0660C21206803F063FF206704212068C2
:103A800003F05EFF010DE164204605A9FFF7AAFCE3
:103A9000002818BF384607D1B4F8500000230204AC
:103AA000206804F045F828B184F83460A16B08431D
:103AB000A0631DE0D4E90412A0690091CDE90120C2
:103AC000D4E902236168206803F044FF4FF40071D9
:103AD000206803F09DFF002804BF11B0BDE8F08FFF
:103AE000074922689163A16B0843A06384F834609E
:103AF00011B00120BDE8F08F00802542000010C108
:103B0000FF0540002DE9F04F87B0054600200090EA
:103B100001900290039004902968A1F18042B2F5CF
:103B200096321CBF07B0BDE8F08F43480068424999
:103B300040F400600860086800F4006005903F48A9
:103B400000683E4940F004000860086800F0040086
:103B50000590086840F0080008600868022400F03A
:103B6000080005904FF4F850CDE9000403264FF00B
:103B70000C08CDE9036869463148FEF775F904275A
:103B800000200097CDE90140CDE9036869462D4842
:103B9000FEF76AF92D4C2C484FF4805820607806C7
:103BA00060600020A060E0603802C4E90408000101
:103BB0004FF02009C4E906094FF4001B0020C4F8A7
:103BC00030B0C4E908074FF4000AC4E90A6A204685
:103BD000FEF73EF8002818BFFDF753FB2C64A563E1
:103BE0001C4C1B484FF4806120604FF00060606007
:103BF0004020A0600020C4E90301C4F830B0C4F83C
:103C00001C90C4E908070901C4E90581C4E90A6AEE
:103C10002046FEF71DF8002818BFFDF732FBEC63C5
:103C2000002205213120A563FEF732FE3120FEF788
:103C30001FFE07B0BDE8F08F443802403038024024
:103C400000080240000C0240A06402405C09002011
:103C500058640240BC0900202DE9F04786B0984620
:103C600004461646B1B194F8340001281EBF022064
:103C700006B0BDE8F0870025A563E26D06EB0800FD
:103C800090420FD9A06B40F00070A06306B00120F5
:103C9000BDE8F087A06B40F00060A06306B0012093
:103CA000BDE8F087032084F834002068C5622068EE
:103CB000C26B40F22A331A43C263226C3148D0638C
:103CC000226C3148D064206C0565206C8560206CC6
:103CD0000068026822F0C002026020684FEA482AA9
:103CE00000F1800C0A464FEA9A036146206CFEF709
:103CF0005DF8DFF89890012770B12068C16B21F45E
:103D00009571C1632068C0F83890A06B40F0804086
:103D1000A06384F8347031E01D480760606C0128AE
:103D200018BF76024FF0FF30CDE9000A90200290D4
:103D300002200597CDE903056946206803F0EAFDF6
:103D4000B8F1010F06D9822020633146206803F0C4
:103D5000D5FE05E0812020633146206803F0DBFEBC
:103D6000002804BF06B0BDE8F0872168C1F838908C
:103D7000A16B0843A06384F83470256306B001206A
:103D8000BDE8F087F97E0008917E0008FF0540003D
:103D90008C85254210B5FDF733FA10BD10B5FDF73F
:103DA00047FA10BD2DE9F0475FEA010886B01F46CB
:103DB0000446114604BFA06B40F0006011D094F897
:103DC000340001281EBF022006B0BDE8F0870025A0
:103DD000A563E26DC819904284BFA06B40F00070EB
:103DE00001D9A06332E0032084F834002068C56262
:103DF0002068C26B40F21A231A43C263E26B324856
:103E0000D063E26B3148D064E06B0565606C0128DB
:103E100018BF49024FF09009012F05D9A020206357
:103E2000206803F079FF04E0C4F83090206803F0C4
:103E300080FFDFF89CA0012660B12168C1F838A09E
:103E4000A16B0843A06384F83460256306B00120A9
:103E5000BDE8F0871F480660E16B40208860E06B9A
:103E60000068016821F0C00141F040010160206854
:103E70007F0200F18002BB084146E06BFDF796FF30
:103E800088B12068C16B21F01A0121F40071C1636F
:103E90002068C0F838A0A06B40F08040A06384F890
:103EA00034602563D2E74FF0FF30CDE90007CDE95C
:103EB0000295CDE904566946206803F02BFD06B053
:103EC0000020BDE8F08700007F7F0008917E000899
:103ED000FF0540008C8525427047000038B5044638
:103EE00000684268816811F0400F0BD111F0010F9A
:103EF00018BF12F0400F05D0216C01B02046BDE87C
:103F00003040084711F0020F18BF12F0800F05D0A3
:103F1000616C01B02046BDE83040084711F4B07F25
:103F200014BF12F0200F38BD11F0400F0AD094F8E2
:103F30005130032B4DD0636D43F004036365C368B8
:103F40008368009311F0200F09D0636D43F00103E3
:103F5000636583680093036823F04003036011F4F2
:103F6000807F06D0606D40F0080060652068806842
:103F70000090606D002808BF38BD2068416821F0BE
:103F8000E0014160012084F8510012F0030F24D0B9
:103F90002068416821F003014160124DE06C40B19E
:103FA0000565E06CFDF74FFD18B1606D40F0400015
:103FB0006065A06C002808BF38BD0565A06CFDF7E2
:103FC00042FD002808BF38BD606D40F040006065CC
:103FD00038BDC1688068009038BD2046FFF77CFF7F
:103FE00038BD000011830008002804BF012070477D
:103FF00070B50446406A002500281CBF2561656134
:1040000004D0A56294F8510058B905E06068B0F595
:10401000827F18BFE561F4E784F85050204600F035
:1040200045F8022084F851002068016821F0400121
:104030000160A088218900F4827001F404410843E2
:10404000A18901F400610843217C01F002010843C9
:10405000217D01F001010843218B01F40071084327
:10406000217F01F03801084394F8201001F080010D
:104070000843218D01F40051084321680860A069BC
:10408000042101EA104094F8241001F010010843C3
:10409000216848602068C16921F40061C1616565DB
:1040A000012084F85100002070BD000070B586B07A
:1040B0000025064600950195029503950495006834
:1040C000364902220323A0F1804CBCF5983C2DD048
:1040D000A0F1804CBCF5705C1CBF06B070BD3048D0
:1040E000D0F800C04CF4004CC0F800C0006800F4E8
:1040F00000400590086840F00200086008686946C2
:1041000000F0020005903820CDE900020620CDE93C
:1041100003302448FDF7A8FE002205213320FEF7D6
:10412000B7FB3320FEF7A4FB06B070BD1E48D0F8E5
:1041300000C04CF4805CC0F800C0006800F48050FF
:104140000590086840F0010008600868694600F0C2
:1041500001000590E020CDE900020520CDE9033003
:104160001248FDF781FE134C114820604FF0C060EB
:1041700060604020C4E902050001C4E90405A561AE
:10418000E561256220466562FDF762FD002818BFE3
:10419000FDF777F8B464A66306B070BD303802400E
:1041A000403802400004024044380240000002400F
:1041B00088640240CC0A00202DE9F84F1D46904645
:1041C0008A460446FDF756FF064694F8510001283A
:1041D00022D1BAF1000F18BFB8F1000F7DD094F8CA
:1041E0005000012818D04FF0010984F850900320A6
:1041F00084F8510000276765C4F830A0A4F8348023
:10420000A4F83680A763A787E78767642764A06858
:10421000B0F5004F03D00CE00220BDE8F88F206815
:10422000016821F0400101602068016841F480418B
:1042300001602068016811F0400F03D1016841F06E
:1042400040010160E068B0F5006F606805D00028AB
:1042500018BFB8F1010F31D03AE0002818BFB8F10B
:10426000010F0BD1206B21680088C860206B00F122
:1042700002002063E08EA0F10100E086E08E0028BD
:1042800046D02068816811F0020F09D0216B09889F
:10429000C160206B801C2063E08E401EE08609E038
:1042A000FDF7E8FE801BA84203D3B5F1FF3F3CD1E8
:1042B00000E0CDB3E08E0028E3D129E0206B216837
:1042C00000780873206B401C2063E08E401EE0865F
:1042D000E08EE8B12068816800E03AE011F0020F5A
:1042E00009D0216B09780173206B401C2063E08E9C
:1042F000401EE08609E0FDF7BDFE801BA84203D307
:10430000B5F1FF3F11D100E075B1E08E0028E1D199
:1043100032462946204604F04DF800281CBF2020D4
:104320006065A06860B907E0FFE784F8519084F801
:1043300050700320BDE8F88F2068C1688068009045
:1043400084F8519084F85070606D002808BFBDE873
:10435000F88F0120BDE8F88F2DE9FF4F81B01D4691
:104360009346044601260E9FFDF784FE94F85110F3
:1043700080466068012906D0B0F5827F02BFA06840
:10438000002804292CD1029800281CBFBBF1000F83
:10439000002D00F0F58094F85000012820D04FF057
:1043A000010A84F850A094F8510004281CBF05208D
:1043B00084F851004FF00009C4F85490C4F838B0A4
:1043C000E587A58702982063E586A586C4F8409016
:1043D000C4F844902068016811F0400F08D103E050
:1043E00005B00220BDE8F08F016841F04001016096
:1043F000E068B0F5006F606804D0002818BF012D98
:104400005BD09CE0002818BF012D41D1206B2168B2
:104410000088C860206B00F102002063E08EA0F1EC
:104420000100E08634E02068816811F0020F1CBFB3
:10443000E18E00290ED0012E0CD1216B0988C160BC
:10444000206B00F102002063E08EA0F10100E08605
:104450004FF000062068816811F0010F1CBFE18F4A
:1044600000290CD0C068A16B0880A06B00F102008D
:10447000A063E08FA0F10100E0874FF00106FDF797
:10448000F9FDA0EB0800B84202D3B7F1FF3F5DD1C0
:10449000E08E002804BFE08F0028C4D14246394690
:1044A000204603F087FF002859D02020606584F85B
:1044B000509005B00120BDE8F08F206B2168007896
:1044C0000873206B401C2063E08E401EE08636E0BF
:1044D0002068816811F0020F1CBFE18E00290ED008
:1044E000012E0CD1216B09780173206B00F10100C2
:1044F0002063E08EA0F10100E0864FF00006206806
:10450000816811F0010F1CBFE18F00290CD0C06839
:10451000A16B0870A06B00F10100A063E08FA0F117
:104520000100E0874FF00106FDF7A4FDA0EB0800B5
:10453000B84203D3B7F1FF3F01D007E037B1E08EB7
:10454000002804BFE08F0028C2D1A7E784F851A05B
:1045500084F8509005B04FF00300BDE8F08FA068DC
:1045600018B92068C1688068009084F851A084F868
:104570005090606D002804BF05B0BDE8F08F00BF0B
:1045800005B04FF00100BDE8F08F000070B50446A3
:1045900090F8510001281DD1002912BF002A0120E6
:1045A00070BD94F85000012814D0012084F8500008
:1045B000032084F85100002565652163A286E28608
:1045C000A56365642564A587E587A068B0F5004FFD
:1045D00002D00BE0022070BD2068016821F040018C
:1045E00001602068016841F480410160A16C1948B4
:1045F0000864A16C1848C863A16C1848C864A06C12
:104600000565E38E2068216B00F10C02A06CFDF7BC
:10461000CDFB38B1606D40F01000606584F85050FB
:10462000012070BD2068016811F0400F03D10168BE
:1046300041F04001016084F850502068416841F029
:10464000200141602068416841F002014160002082
:1046500070BD0000438300084D83000821830008DB
:10466000704770477047704790F83C20012A04BF9C
:1046700002207047012280F83C20CA688B6822F42F
:1046800040721A434B6822F480621A430B6822F48A
:1046900000621A430B6922F480521A434B6922F4D8
:1046A00000521A43C96922F48042114302685164DE
:1046B000002180F83C100846704790F83C20012A01
:1046C00004BF0220704730B4012380F83C3002223E
:1046D00080F83D2002685468D2F808C00D6824F0C4
:1046E00070042C4354600268A2F18044B4F5803415
:1046F00018BFB2F1804F1DD0A2F18044B4F58064A0
:104700001CBFA2F18044B4F5006413D0A2F1804430
:10471000B4F540641CBFA2F18044B4F5823409D0E2
:10472000A2F18044B4F5A0341CBFA2F18044B4F5DA
:10473000C05405D149682CF0800C41EA0C0191600D
:1047400080F83D30002180F83C1030BC08467047AE
:10475000002804BF0120704710B5044690F83D00C2
:1047600028B9002084F83C00204600F01FF8022001
:1047700084F83D00211D206803F03CFF012084F8EF
:10478000460084F83E0084F83F0084F8400084F836
:10479000410084F8420084F8430084F8440084F81F
:1047A000450084F83D00002010BD0000006881B085
:1047B000A0F18041B1F5803111D0A0F18041B1F577
:1047C00080511CBF01B070470948016841F01001D9
:1047D0000160006800F01000009001B070470548CB
:1047E000016841F001010160006800F00100F3E799
:1047F000403802404438024090F83D1001291CBF67
:1048000001207047022180F83D100068A0F180412E
:10481000B1F5803118BFB0F1804F1DD0A0F18041BB
:10482000B1F580611CBFA0F18041B1F5006113D0EA
:10483000A0F18041B1F540611CBFA0F18041B1F50C
:10484000823109D0A0F18041B1F5A0311CBFA0F1A7
:104850008041B1F5C05104D1816801F007010629FA
:1048600003D0016841F0010101600020704790F819
:104870003D1001291CBF01207047022180F83D1026
:104880000168CA6842F00102CA600068A0F1804174
:10489000B1F5803118BFB0F1804F1DD0A0F180413B
:1048A000B1F580611CBFA0F18041B1F5006113D06A
:1048B000A0F18041B1F540611CBFA0F18041B1F58C
:1048C000823109D0A0F18041B1F5A0311CBFA0F127
:1048D0008041B1F5C05104D1816801F0070106297A
:1048E00003D0016841F001010160002070470168B8
:1048F0000A6A41F211131A4207D10A6A9B101A423E
:1049000003D10A6822F001020A60012180F83D10FB
:104910000020704790F83C200023012A0DBF0220A0
:104920004FF0010C80F83CC0704770B4022280F850
:104930003D200268946824F0770424F47F44946056
:104940000A68502A43D00CDC202A75D004DC002AE7
:1049500018BF102A0FD18BE0302A6DD0402A6DD0BD
:1049600009E0602A4DD0702A0ED0B2F5805F03D0E6
:10497000B2F5005F19D0012380F83DC0002180F816
:104980003C1070BC18467047D1E901450268C968FF
:10499000966844EA012126F47F4629433143916019
:1049A00001688A6842F077020FE0D1E901450268A8
:1049B000C968966844EA012126F47F4629433143B9
:1049C000916001688A6842F480428A60D4E7026894
:1049D0004C68C968156A166A26F00106166296695F
:1049E00025F00A0526F0F00646EA01112C439161F4
:1049F000146201688A6822F0700242F057028A60ED
:104A0000BAE702684C68C968156A166A26F010068B
:104A10001662966925F0A00526F4704646EA013133
:104A200045EA04149161146201688A6822F07002F8
:104A300042F067028A609FE71AE0FFE702684C686D
:104A4000C968156A166A26F001061662966925F08D
:104A50000A0526F0F00646EA01112C439161146222
:104A600001688A6822F0700242F047028A6083E798
:104A700001688C6824F07004224342F007028A60C7
:104A80007AE7002804BF0120704770B5044690F80B
:104A90003D000D4628B9002084F83C00204600F077
:104AA00053F8022084F83D002068816821F0070156
:104AB00021F480418160211D206803F09BFD206866
:104AC00082688369016AD5F800C023F00303AE69E8
:104AD0004CEA020223F4407343EA0623D5F808C0E7
:104AE000EE694CEA030323F0FC0323F47C43D5F87E
:104AF0000CC043EA06234CEA0303D5F810C02E6A23
:104B00004FEA0C1C4CEA063C4CEA0303D5F804C0FF
:104B10006D6921F0AA0141EA05114CEA01018260A8
:104B20002068836120680162012084F8460084F8CF
:104B30003E0084F83F0084F8420084F8430084F883
:104B40003D00002070BD000000B587B0002100913D
:104B500001910291039104910068A0F18041B1F5A7
:104B600000611CBF07B000BD0F48016841F004019F
:104B70000160006800F0040005900C48016841F0F5
:104B8000080101600068012100F0080005904FF461
:104B9000405000900220CDE901010490694604488C
:104BA000FDF762F907B000BD4038024030380240DE
:104BB000000C024030B490F83E3090F83F5090F82E
:104BC000424090F843C0022231B1042915D0012B94
:104BD00008BF012D24D028E0012B08BF012C24D1CF
:104BE00080F83E2080F8422001680A6A22F0010223
:104BF0000A620A6A42F0010234E0012D08BFBCF1EA
:104C0000010F12D180F83F2080F8432001680A6A22
:104C100022F010020A620A6A42F010020A6222E0DE
:104C2000012C08BFBCF1010F03D030BC4FF00100D4
:104C3000704780F83E2080F83F2080F8422080F8BE
:104C4000432001680A6A22F001020A620A6A42F0FD
:104C500001020A6201680A6A22F010020A620A6A04
:104C600042F010020A620068016841F0010101602F
:104C700030BC4FF00000704770472DE9F04104460A
:104C80000068C66805694FF0000715F0020F18BFED
:104C900016F0020F13D06FF002010161012020779E
:104CA0002068806910F0030F204602D0FFF7E4FF70
:104CB00004E000F08CF8204600F0DEF9277715F0CC
:104CC000040F18BF16F0040F14D021686FF0040011
:104CD0000861022020772068806910F4407F204618
:104CE00002D0FFF7C9FF04E000F071F8204600F0A1
:104CF000C3F9277715F0080F18BF16F0080F14D066
:104D000021686FF008000861042020772068C069DE
:104D100010F0030F204602D0FFF7AEFF04E000F0D2
:104D200056F8204600F0A8F9277715F0100F18BFA5
:104D300016F0100F14D021686FF0100008610820E1
:104D400020772068C06910F4407F204602D0FFF72A
:104D500093FF04E000F03BF8204600F08DF9277740
:104D600015F0010F18BF16F0010F06D021686FF083
:104D700001000861204600F0F1F915F0800F18BF1E
:104D800016F0800F06D021686FF080000861204681
:104D9000FFF768FC15F0400F18BF16F0400F06D063
:104DA00021686FF040000861204600F0DEF915F040
:104DB000200F14BF16F0200FBDE8F0816FF0200027
:104DC000216808612046BDE8F041FFF74CBC704700
:104DD0002DE9F00190F83C300024012B02BF0220A5
:104DE000BDE8F0017047012380F83C30894BDFF8C3
:104DF00028C27AB1042A50D0082A7DD00C2A18BFC4
:104E0000012400F0D380002180F83C102046BDE84A
:104E1000F00170470268156A166A26F001061662EC
:104E200056689769D1F8008027F0730748EA0707AA
:104E3000D1F8088025F0020548EA05059A4218BF16
:104E4000624507D1D1F80C8025F0080548EA050530
:104E500025F004059A4218BF624509D1D1F814C063
:104E600026F440734CEA0303D1F818C04CEA030659
:104E7000566097614B68536315620268936943F00B
:104E8000080393610268936923F004039361026845
:104E90009369096943EA010143E00268156A166AE9
:104EA00026F01006166256689769D1F8008027F43C
:104EB000E64747EA0827D1F8088025F0200545EAAB
:104EC00008159A4218BF624507D1D1F80C8025F029
:104ED000800545EA081525F040059A4218BF62454D
:104EE00009D1D1F814C026F4406343EA8C03D1F809
:104EF00018C043EA8C0600E015E0566097614B68E5
:104F0000936315620268936943F4006393610268D6
:104F1000936923F48063936102689369096943EAA2
:104F2000012191616FE70268166A156A25F48075A0
:104F300015625568D769D1F8008027F0730748EAF1
:104F40000707D1F8088026F4007646EA08269A4238
:104F500018BF624507D1D1F80C8026F4006646EAF6
:104F6000082626F480669A4218BF624509D1D1F816
:104F700014C025F4405343EA0C13D1F818C043EA97
:104F80000C155560D7614B68D36316620268D3690C
:104F900043F00803D3610268D36923F00403D361AB
:104FA0000268D369096943EA010131E00268176ABE
:104FB000156A25F4805515625568D669D1F80080C8
:104FC00026F4E64646EA0826D1F8088027F400577A
:104FD00047EA08379A4218BF624505D1D1F814C094
:104FE00025F4804343EA8C155560D6614B68136401
:104FF00017620268D36943F40063D3610268D3691E
:1050000023F48063D3610268D369096943EA01210B
:10501000D161F8E60000014000040140002804BF0F
:105020000120704710B5044690F83D0028B90020D3
:1050300084F83C00204600F01EF8022084F83D0071
:10504000211D206803F0D6FA012084F8460084F878
:105050003E0084F83F0084F8400084F8410084F862
:10506000420084F8430084F8440084F8450084F842
:105070003D00002010BD704770470000022361B161
:1050800004294BD0082951D090F84120012A08BFAB
:1050900080F8413008D00120704790F83E20012A66
:1050A00008BF80F83E30F6D101F01F0302680121ED
:1050B0009940136A8B431362136A19431162254A9C
:1050C0000168254B914218BF994205D1D1F844C0DF
:1050D0004CF4004CC1F844C00068904218BFB0F1D5
:1050E000804F2BD0A0F18041B1F580611CBFA0F1B1
:1050F0008041B1F5006121D0A0F18041B1F540615E
:1051000018BF98421AD0A0F18041B1F5A0311CBF60
:10511000A0F18041B1F5C05110D014E090F83F20CB
:10512000012A08BF80F83F30B5D1BDE790F8402094
:10513000012A08BF80F84030ADD1B5E7816801F0A1
:105140000701062903D0016841F001010160002038
:105150007047000000000140000401400068B0F109
:10516000804F18BF7047FDF7F7BA70477047704718
:10517000F8B5016804460868CA684B6910F00F0F5B
:105180004FF020064FF0000560D003F0010C02F450
:1051900090775CEA07077DD010F0010F18BF12F47A
:1051A000807F03D0616C41F00101616410F0040F55
:1051B00018BF13F0010F03D0616C41F0020161646C
:1051C00010F0020F18BF13F0010F03D0616C41F013
:1051D0000401616410F0080F1CBF02F0200151EAC5
:1051E0000C0103D0616C41F008016164616C00291D
:1051F00008BFF8BD10F0200F1EBF12F0200F204690
:1052000003F069FA20684069616CC0F3801011F006
:10521000080F08BF002858D0206800F10C0050E8A3
:10522000001F21F4907140E80012002AF4D1206898
:1052300000F1140050E8001F21F0010140E80012C5
:10524000002AF4D1206B012816D10AE010F0200FBB
:1052500018BF12F0200F3DD02046BDE8F84003F003
:105260003ABA206800F10C0151E8000F20F010005C
:1052700041E80002002AF4D184F8426025632068E6
:10528000406910F0400F1CD0206800F1140151E873
:10529000000F00E01EE020F0400041E80002002A7C
:1052A000F2D1E06B68B178490165E06BFCF7CBFBAC
:1052B000002808BFF8BDE06B016D01B0BDE8F0400B
:1052C00008472046FFF753FFF8BD2046FFF74FFF82
:1052D0006564F8BD236B012B7DD110F0100F18BF52
:1052E00012F0100F77D008684868009048694FF0B6
:1052F000020710F0400F4DD0E26B106840680004C8
:10530000000C1CBFA18D81423CD9E085D069B0F56D
:10531000807F2ED020680C3050E8001F21F480716F
:1053200040E80012002AF5D12068143050E8001F30
:1053300021F0010140E80012002AF5D1206800F1B7
:10534000140151E8000F20F0400041E80002002A5B
:10535000F4D184F84260256320680C3050E8001FC7
:1053600021F0100140E80012002AF5D1E06BFCF7B3
:1053700017FB6763A08DE18D401A81B22046FFF7CD
:10538000F5FEF8BDA18D814206BFD069B0F5807FE2
:10539000F8BD2FE0A08DE18DA0EB010081B2E08D82
:1053A000002814BF0029F8BD206800F10C0252E863
:1053B000000F20F4907042E80003002BF4D1206825
:1053C00000F1140252E8000F20F0010042E800034F
:1053D000002BF4D100E012E084F8426025632068DD
:1053E00000F10C0050E8002F22F0100240E80023EA
:1053F000002BF4D167632046FFF7B8FEF8BD10F02C
:10540000800F18BF12F0800F2DD094F84100212892
:1054100018BFF8BDA068B0F5805F04BF2069002800
:10542000206A18D000F101012162216800784860EB
:10543000E08CA0F101000004000CE08418BFF8BD6E
:105440002068C16821F08001C1602068C16841F016
:105450004001C160F8BD0088C0F308004860206AC0
:10546000801C2062E4E710F0400F14BF12F0400FE0
:10547000F8BD2046CA6822F04002CA6084F8416044
:1054800000F0DFFAF8BD0000C9860008002804BF5C
:105490000120704770B5044690F84100002520B9FE
:1054A00084F84050204600F023F8242084F841007E
:1054B0002068C16821F40051C160204603F072F9F0
:1054C0002068016921F4904101612068416921F05F
:1054D0002A0141612068C16841F40051C1606564DE
:1054E000202084F8410084F842006563002070BDEC
:1054F0002DE9F04786B000270097019702970397A0
:10550000049703685D485E49022403250726DFF8F7
:1055100074C1A3F18042B2F588323AD0021FDFF89D
:105520006881A3F1804A4FF00809BAF5884A51D042
:10553000A3F1804CBCF5904C7ED0A3F18042B2F533
:105540008A321CBF06B0BDE8F087026842F0200234
:105550000260006800F020000590086840F0040038
:1055600008600868694600F004000590C020CDE995
:105570000004CDE903594548FCF776FC00220521DB
:105580004720FDF785F94720FDF772F906B0BDE821
:10559000F087026842F010020260006800F010001C
:1055A0000590086840F0010008600868694600F04E
:1055B000010005904FF4C060CDE90004CDE9035629
:1055C0006046FCF751FC002205212520FDF760F91B
:1055D0002520D9E7106840F400301060106800F40E
:1055E00000300590086840F001000860086800F08D
:1055F00001000590086840F00800086008686946E6
:1056000000F00800CDE90460CDE900940395604600
:10561000FCF72AFC2020CDE900040297CDE90356CF
:1056200069464046FCF720FC002205212620FDF7B4
:105630002FF92620A8E7FFE7106840F480201060CB
:10564000106800F480200590086840F008000860A9
:105650000868694600F0080005904FF44070CDE9F5
:105660000004CDE903564046FCF7FEFB002205216D
:105670002720FDF70DF9272086E700004438024077
:105680003038024000000240000C02400008024096
:1056900090F84230202B1CBF02207047002912BF17
:1056A000002A012070474FF0000303638162828566
:1056B000C28543644FF0220180F84210016921B194
:1056C0000168CA6842F48072CA6001684A6942F09F
:1056D00001024A610068C16841F02001C1601846BA
:1056E000704700002DE9F043064600680025654C30
:1056F000A0F1804185B0B1F588312ED120781328F2
:1057000025D2614962790A54401CC0B220700A2A2D
:105710001ED10D5403225DA15B48FAF749FEB0B9D2
:105720003A215948FAF70FFE88B1471C58A138466C
:10573000FAF74DFE002818BF05703846FAF70DFE3F
:10574000431C3A464FF48051002003F08FF9257036
:10575000012250495048FFF79BFF30680127DFF8CE
:105760003C81DFF83C91A0F18041B1F5884122D124
:105770006078092828BF657018D24A49A2790A546E
:10578000401CC0B260700A2A10D10D544648002354
:105790001A46006840F08EF900231A464149D8F8AD
:1057A000000040F087F96570C9F8007001223F4998
:1057B0003F48FFF76DFF3068A0F18041B1F590419F
:1057C0001BD1A078092828BFA57011D23949E279E8
:1057D0000A54401CC0B2A0700A2A09D10D540023FB
:1057E0001A46D8F8000040F065F9A570C9F80070B5
:1057F000012231493148FFF74BFF3068A0F1804169
:10580000B1F58A311CBF05B0BDE8F083227A2C497E
:10581000E0780A2A0CD0092802D20A54401CE07011
:1058200005B00122BDE8F04326492748FFF730BF05
:105830000D54E57003A8009002AB01AA23A12048F3
:10584000FAF7D6FD0328EBD123490198234B0860D2
:10585000029A1A60224B039A0C281A60214A08DB2C
:1058600021A31B881380957018BF0C38D8DD086001
:10587000D6E71EA300281B881380957008BF0C2054
:10588000CED1F4E7BCC1012048C7012050443A0002
:105890000D0A0000C1C1012098C50120A0C001204F
:1058A00068C001205CC701209CC00120C2C101204A
:1058B000E0C5012066C70120C3C1012028C6012020
:1058C00070C70120C4C1012070C6012025643A259B
:1058D000643A25640000000090C20120B401002059
:1058E000B8010020BC010020504D0000414D0000D7
:1058F0002DE9F84F044690F841001D4616468846AB
:1059000020281CBF0220BDE8F88FB8F1000F12BF9D
:10591000002E0120BDE8F88F4FF0000BC4F844B012
:105920004FF0210084F84100FCF7A4FBA6848146D7
:10593000E684A068B0F5805F07BF2069002846466E
:105940004FF0000808BF0026E08C4FF0200A002826
:105950005ED020688027006837EA00004DD000BF85
:10596000B5F1FF3F44D0FCF785FBA0EB0900A8424E
:105970005BD8002D59D02068C16811F0040F18BF02
:10598000802F35D0402F1CBF016811F0080F2FD099
:10599000016840680090206800F10C0151E8000F98
:1059A00020F4907041E80002002AF4D1206800F150
:1059B000140050E8001F21F0010140E80012002A05
:1059C000F4D1206B01280AD1206800F10C0151E8C4
:1059D000000F20F0100041E80002002AF4D184F802
:1059E00042A0C4F830B00820606484F840B01CE0E5
:1059F0002068006837EA0000B2D1DEB1216816F8ED
:105A0000010B4860E08C401EE084E08C0028A0D1AF
:105A10004B46002240212046009502F03BFF002823
:105A200004BF84F841A0BDE8F88F84F841A00320AA
:105A3000BDE8F88F38F8020B2168C0F30800486011
:105A4000E0E770470148FDF7C3BB0000B0C4012088
:105A500001A003F01FFCFEE7486172644661756CAB
:105A60007400000010B5806B01684A6822F00302E0
:105A70004A60002141854186012180F84110416C36
:105A800041F008014164FCF762FC10BD10B501460D
:105A9000806BC96949B901684A6822F002024A600C
:105AA00000214185012180F84110FCF70DFE10BD59
:105AB00010B5806BFCF72CFE10BD30B501680446B4
:105AC00083B08868009094F841000125042838D1FB
:105AD000009810F0010F1CBF486810F0400F16D05E
